:060000000A128A11F02F24
:100832007E088A007F08820019240A128A11800029
:10084200840A04087D0603190034FF0A0319FE0A0C
:100852001D2C2C3401342C34013460340934F83426
:100862001134B0340434A834163420340334EA3456
:100872000B346E340F3464344634AA345F34C834D3
:1008820055347334F400C530F20072088312031336
:100892009F057408F20002300310F20DFF3E031DA3
:1008A2004D2C0310720DF30073089F040630F20002
:1008B200F20B592C0000831203131F151F195F2C12
:1008C2001E08F101F107831603131E08F001F00759
:1008D2000800F3007308013A031D732C83120313FB
:1008E20088147F2C7308FF3A031D7C2C8312031398
:1008F20088100814802C83120313881008107108C2
:10090200013A031D862C88158E2C7108FF3A031DAF
:100912008D2C881108158F2C8811081170089500EC
:1009220072089B0008008316031387100711E0303A
:10093200F000700888050610E030F000700883129D
:1009420003138805061008162F30F000700883166E
:10095200031385040730F0007008890441308312C4
:1009620003139F008030831603139F00F930920017
:1009720005308312031392000C3097000C309D0057
:1009820095019B010800710870040319F12CF5010F
:10099200F50AF11BD82C01300310F00DF10DFF3ECA
:1009A200031DCD2C0130F4007408F507CA2C710820
:1009B2007302031DDE2C70087202031CE62C700801
:1009C200F2027108031CF303F30201300310F10C6D
:1009D200F00CFF3E031DE72C0130F502031DD82C5D
:1009E2007308F101F1077208F001F0070800003006
:1009F200FC000030FB000030FA000030F900701CEF
:100A0200162D7408F907750803110318013E031D1A
:100A1200FA07760803110318013E031DFB07770846
:100A220003110318013E031DFC070130F8000310F7
:100A3200F40DF50DF60DF70DF80B182D013003101E
:100A4200F30CF20CF10CF00CFF3E031D202D730889
:100A5200720471047004031D002D7C08F3007B08EE
:100A6200F2007A08F1007908F00008000030FC007A
:100A72000030FB000030FA000030F9007308720405
:100A82007104700403198C2DFD01FD0AF31B572D0F
:100A92000130F8000310F00DF10DF20DF30DF80B1B
:100AA2004B2D0130F8007808FD07472D0130F80082
:100AB2000310F90DFA0DFB0DFC0DF80B592D7308FF
:100AC2007702031D6E2D72087602031D6E2D7108CA
:100AD2007502031D6E2D70087402031C7F2D7008B1
:100AE200F4027108031C710FF5027208031C720FE5
:100AF200F6027308031C730FF70279140130031016
:100B0200F30CF20CF10CF00CFF3E031D802D0130B2
:100B1200FD02031D572D7C08F3007B08F2007A08C2
:100B2200F1007908F0000800AC3083120313CC0006
:100B32000D30CD00C301C401AC30C9000D30CA0074
:100B4200C701C8010A128A1194240A128A110630B6
:100B520083120313A2001330A100B130A000A00B36
:100B6200B02DA10BB02DA20BB02DB72D00308312EA
:100B72000313BE000030BD000030BC000030BB00DB
:100B82000030C2000030C1000030C0000030BF00A1
:100B9200C501C6011430F0000030F1004408F30131
:100BA200F3074308F201F2070A128A11C4240A1257
:100BB2008A1171087004031DE92D831203130618AC
:100BC200E62D831203130614E92D83120313061074
:100BD20083120313CB0108304B0203189F2E4B08DC
:100BE2000A128A1143240A128A11831203134B0830
:100BF200A0002007273E8400700883138000840A27
:100C0200710880004B08A0002007273E84000008DE
:100C1200A100840A0008A20022084F02031D132E1D
:100C220021084E020318972E4B08A0002007273EEA
:100C320084000008A100840A0008A2002108F00034
:100C42002208F100F201F3014B08A300A401A5015F
:100C5200A6012608F7002508F6002408F500230857
:100C6200F4000A128A11F8240A128A1173088312F4
:100C72000313BA007208B9007108B8007008B7000F
:100C82003A08F3003908F2003808F1003708F0009A
:100C92000030F7000030F6000330F500E830F400D1
:100CA2000A128A11F8240A128A1170088312031395
:100CB200BB07710803110318013E031DBC0772082C
:100CC20003110318013E031DBD0773080311031826
:100CD200013E031DBE074B08A0002007273E8400EB
:100CE20083130008A100840A0008A2002108A300BF
:100CF2002208A400A501A6012308BF0724080311A6
:100D02000318013E031DC007250803110318013E05
:100D1200031DC107260803110318013E031DC20764
:100D22000130C5070318C60A0030C6070130A0000B
:100D32002008CB0708304B02031CF02D003046027E
:100D4200053003194502031CC22E28084F02031D59
:100D5200AC2E27084E020318B12ECC01CD01E32E92
:100D620036084F02031DB72E35084E020318BD2E5A
:100D72005830CC001B30C02EAC30CC000D30CD0032
:100D8200E32E460845040319E92E4208F300410800
:100D9200F2004008F1003F08F0003E08F7003D086D
:100DA200F6003C08F5003B08F4000A128A113725C8
:100DB2000A128A11710883120313CD01CD0770083C
:100DC200CC01CC074D08CA01CA074C08C901C907A2
:100DD2004608450403194C2FC701C80157084D02A4
:100DE200031DF52E56084C02031CBB2F831203135E
:100DF20053084D02031DFF2E52084C020318092FFF
:100E02006108A0002008F000F101F10A6208D02F69
:100E1200831203135D084D02031D112F5C084C025F
:100E220003181B2F6508A0002008F000F101F10A49
:100E32006608D02F831203134D085902031D232F76
:100E42004C085802031CC92F831203134D08550284
:100E5200031D2D2F4C0854020318372F6208A000DF
:100E62002008F000F101F10A6108D02F8312031368
:100E72004D085F02031D3F2F4C085E020318492FE5
:100E82006608A0002008F000F101F10A6508D02FE1
:100E9200831203136C2F013083120313C707031845
:100EA200C80A0030C80751084802031D5A2F5008CB
:100EB200470203188F2F4A085302031D622F490865
:100EC20052020318742F55084A02031D6A2F540850
:100ED20049020318742F6008A0002008F000F101F5
:100EE200F10A6008D02F831203134A085302031D2C
:100EF2007C2F49085202031C852FF001F101F10AEF
:100F02006208A0002008D22F831203136208A000F7
:100F12002008F000F101F10AF201D32F831203132A
:100F22005B084802031D972F5A0847020318A32F94
:100F32000D304A02AC30031949020318C92F83123B
:100F42000313BB2F831203135B08A1005A08A000EE
:100F52000310A00DA10D21084802031DB22F200885
:100F620047020318D52F0D304A02AC30031949024B
:100F7200031CC72F6308A0002008F000F101F10A4A
:100F82006408A1002108F200FF30D92F8312031355
:100F92006408A0002008F000F101F1036308A10039
:100FA2002108F2000130D92FF001F101F2010030E5
:100FB2000A128A116A240A128A1101308312031357
:100FC200C3070318C40A0030C40700304402323099
:100FD20003194302031CB72DC301C401B72D8313A8
:100FE2006730FD000430FE002A30FF004E308400DE
:0E0FF2000A128A111D2483010A128A11952DFC
:02400E0071FF40
:00000001FF
