:060000000A128A11122809
:10000800FE00030EF2000408F3000A08F40083124D
:1000180003137F08F5000A128A111B280A128A1195
:100028001528F601F70183010A128A1173288B1328
:100038008B1C63288B107614382801303228023044
:10004800322803303228043032280530322806306E
:10005800322807303228083032280930F00070087A
:10006800F7006128F701612808080F39F000F1014D
:100078007108003A0319412861287008003A0319E9
:100088002128013A03192328033A03192528063A97
:1000980003192728013A03192928033A03192B2899
:1000A8000E3A03192D28013A03192F28033A031988
:1000B8003128073A031936286128770887000B1D6D
:1000C80067280B11F6148B177508FF0074088A004F
:1000D80073088400720E8300FE0E7E0E09008316DC
:1000E80003138501FF3086008701FF308800C43084
:1000F80081008B100B168312031381010B118B16D1
:100108008B1787017708093A031D8C28F701902877
:100118000130A4002408F7076230A0000030A100D5
:100128000A128A119E200A128A1177088312031371
:100138008700862883120313A201A3012108230242
:10014800031DA8282008220203180800F61CA2286C
:10015800F6100130A2070318A30A0030A307A2284B
:02400E0071FF40
:00000001FF
