:060000000A128A11FC2F18
:100F2C000630831603139F0001308500860183125F
:100F3C0003138601051CA02FF201F3012730730265
:100F4C001030031972020318B82F0130F20703187E
:100F5C00F30A0030F30727307302103003197202C2
:100F6C00031CAB2FF101033071020318F72F83120E
:100F7C0003130614F201F301273073021030031926
:100F8C0072020318D62F0130F2070318F30A00304F
:100F9C00F30727307302103003197202031CC92F98
:100FAC00831203130610F201F30127307302103081
:100FBC00031972020318EF2F0130F2070318F30A1A
:100FCC000030F30727307302103003197202031C30
:100FDC00E22F0130F0007008F10703307102031C9E
:100FEC00BD2F83120313051CA02FF72F83010A12A8
:040FFC008A11962F91
:02400E0071FF40
:00000001FF
