:100000000A128A11FC2F00308A000408840A820731
:1000100000343134323433342034343435343634EB
:10002000203437343834393420342A3430342334CB
:040030002034003444
:100EA600F6007608831203138600071407118714C9
:100EB6000130F0000030F1000A128A119F278312D8
:100EC600031387100800F6007608831203138600C2
:100ED6000710071187140130F0000030F1000A12E4
:100EE6008A119F2783120313871008000130F00030
:100EF6000030F1000A128A119F270A128A1138302F
:100F06000A128A1166270A128A1108300A128A11F1
:100F160066270A128A1101300A128A1166270A12F6
:100F26008A1106300A128A1166270A128A110F30B0
:100F36000A128A1166270800F201F301710873028A
:100F4600031DA72F7008720203180800F401F501AB
:100F560003307502E830031974020318BF2F0130FD
:100F6600F4070318F50A0030F50703307502E83078
:100F760003197402031CB22F0130F2070318F30A97
:100F86000030F307A12F8316031386018701FF3074
:100F960088000A128A1179270A128A11C7300A12A2
:100FA6008A1166270A128A1148300A128A115327B3
:100FB6000A128A1145300A128A1153270A128A1117
:100FC6004C300A128A1153270A128A114C300A121F
:100FD6008A1153270A128A114F300A128A1153278F
:100FE6000A128A1121300A128A1153270A128A110B
:0A0FF600D12F83010A128A11C62FC1
:02400E0071FF40
:00000001FF
