:100000000A128A11FC2F00308A000408840A820731
:1000100000343134323433342034343435343634EB
:10002000203437343834393420342A3430342334CB
:040030002034003444
:100E6C00F600760883120313860007140711871403
:100E7C000130F0000030F1000A128A11822783122F
:100E8C00031387100800F6007608831203138600FC
:100E9C000710071187140130F0000030F1000A121E
:100EAC008A11822783120313871008000130F00087
:100EBC000030F1000A128A1182270A128A11383086
:100ECC000A128A1149270A128A1108300A128A1149
:100EDC0049270A128A1101300A128A1149270A126B
:100EEC008A1106300A128A1149270A128A110F3008
:100EFC000A128A1149270800F201F30171087302E2
:100F0C00031D8A2F7008720203180800F401F50102
:100F1C0003307502E830031974020318A22F013054
:100F2C00F4070318F50A0030F50703307502E830B2
:100F3C0003197402031C952F0130F2070318F30AEE
:100F4C000030F307842F8316031386018701FF30CB
:100F5C0088000A128A115C270A128A11F90183127D
:100F6C000313081EB52F08080F39F7007708F8008F
:100F7C00081ABE2F7908503A031DD42F01300A12DB
:100F8C008A1149270A128A110230F0000030F10050
:100F9C000A128A1182270A128A11F9017908143A65
:100FAC00031DDA2FC030E52F7908283A031DE02FF6
:100FBC009430E52F79083C3A031DEA2FD4300A12FD
:100FCC008A1149270A128A117808013E84000A12F4
:100FDC008A1103200A128A110A128A1136270A1260
:100FEC008A110130F7007708F907B52F83010A122F
:040FFC008A11A92F7E
:02400E0071FF40
:00000001FF
