:060000000A128A11FC2F18
:100F5000831603138601831203138601080083128C
:100F60000313981CB52F181218168C1EB52F1A08CB
:100F700008008316031307178717193099001812F2
:100F800018158312031398171813181608000A125D
:100F90008A11A8270A128A110A128A11B9270A127D
:100FA0008A110A128A11AF270A128A11F1007108F8
:100FB000F20072080A128A11E0270A128A11D12F50
:100FC000F00030307002031CEF2F3A30700203182B
:100FD000EF2F7008D03E83120313860008007008BC
:100FE0002A3A0319F72F7008233A031D08000F301F
:100FF000831203138600080083010A128A11C72F87
:02400E0071FF40
:00000001FF
