:060000000A128A11FC2F18
:100F44000630831603139F00013085008601831247
:100F540003138601051CAF2FB02FAC2FF101F20152
:100F64000130F1070318F20A0030F2072730720249
:100F7400103003197102031CC02FC12FB22FF001CE
:100F8400831203130614F101F2010130F10703186F
:100F9400F20A0030F207273072021030031971028E
:100FA400031CD52FD62FC72F831203130610F1016C
:100FB400F2010130F1070318F20A0030F20727307A
:100FC4007202103003197102031CE92FEA2FDB2F80
:100FD4000130F00703307002031CF12FF22FC22FEF
:100FE400831203130518F72FF82FF22FAC2F0A12D0
:0C0FF4008A11002883010A128A11A22F22
:02400E00713F00
:00000001FF
