:060000000A128A11EF2F25
:100A5E00013464008001840A04060319003404067C
:100A6E00312D8030831603139F0041308312031300
:100A7E009F000800FF30831603138500FF308600A9
:100A8E00870188018312031388010800F401F50120
:100A9E00701C572D7208F4070318F50A7308F50732
:100AAE0001300310F20DF30DFF3E031D582D0130E2
:100ABE000310F10CF00CFF3E031D5F2D7108700446
:100ACE00031D4F2D7508F101F1077408F001F007B1
:100ADE000800F400C730F2007208831203139F055A
:100AEE007408F20002300310F20DFF3E031D7A2D42
:100AFE000310720DF30073089F040630F200F20B20
:100B0E00862D0000831203131F151F198C2D1E082E
:100B1E00F101F107831603131E08F001F007080018
:100B2E00F11B9E2D8312031308148810A72D831218
:100B3E00031308108814F009F109F00A0319F10AD9
:100B4E00F31BAC2D08158811B32D08118815F20969
:100B5E00F309F20A0319F30A7108803AFF00813093
:100B6E007F02031DBC2D00307002031CC22DFF300E
:100B7E00F0000030F1007308803AFF0081307F02F0
:100B8E00031DCB2D00307202031CD12DFF30F2005D
:100B9E000030F300700883120313950072089B0057
:100BAE00080083120313C201F31FEA2DF009F109A5
:100BBE00F209F309F00A0319F10A0319F20A0319EB
:100BCE00F30AC201C20AF71FFB2DF409F509F60953
:100BDE00F709F40A0319F50A0319F60A0319F70AB5
:100BEE000130F8007808C2060030C6000030C5009B
:100BFE000030C4000030C300730872047104700426
:100C0E000319502EC101C10AF31B1B2E0130F8002F
:100C1E000310F00DF10DF20DF30DF80B0F2E013048
:100C2E00F8007808C1070B2E0130F8000310C30D31
:100C3E00C40DC50DC60DF80B1D2E73087702031DCE
:100C4E00322E72087602031D322E71087502031DB4
:100C5E00322E70087402031C432E7008F4027108C1
:100C6E00031C710FF5027208031C720FF602730853
:100C7E00031C730FF702431401300310F30CF20C34
:100C8E00F10CF00CFF3E031D442E0130C102031D7A
:100C9E001B2E420803195E2EC309C409C509C609D5
:100CAE00C30A0319C40A0319C50A0319C60A46085A
:100CBE00F3004508F2004408F1004308F000080074
:100CCE000A128A1141250A128A110A128A1138252E
:100CDE000A128A1183120313DB0108305B02031818
:100CEE008B2E5B08C7004707303E8400003083130D
:100CFE008000840A023080000130C7004708DB07FD
:100D0E0008305B02031C782E83120313DB010830BC
:100D1E005B020318AD2E5B080A128A1170250A12A7
:100D2E008A11831203135B08C7004707203E840015
:100D3E00700883138000840A710880000130C70098
:100D4E004708DB0708305B02031C922E0030D800E8
:100D5E000030D7000030D6000030D5000030D4006F
:100D6E000030D3000030D2000030D100DB0108305B
:100D7E005B020318192F5B08C7004707203E84004B
:100D8E0083130008C800840A0008C9005B08CA0063
:100D9E004A07303E84000008CB00840A0008CC00CD
:100DAE0049084C02031DDD2E48084B020318112F73
:100DBE000130D507003003180130D6070030031874
:100DCE000130D707003003180130D8075B08FD3E0D
:100DDE00C700FF3003180030C8004708C900480894
:100DEE00CA000030CA1BFF30CB00CC004908D10727
:100DFE004A0803110318013E031DD2074B080311C5
:100E0E000318013E031DD3074C0803110318013EBE
:100E1E00031DD4070130C7004708DB0708305B020B
:100E2E00031CC22E5808570456045504031D622F86
:100E3E000130C7004708C0075C08FF3A031D2F2F7B
:100E4E008830F000FF30F1007830F2000030362F9D
:100E5E007830F0000030F1008830F200FF30F300FF
:100E6E000A128A1197250A128A111030831203135F
:100E7E004002031C8B2E5C08FF3A031D542F4C308E
:100E8E00F000FF30F100B430F2000030F3000A122F
:100E9E008A1197250A128A118B2EB430F000003079
:100EAE00F1004C30F200FF30F3000A128A11972540
:100EBE000A128A118B2E83120313C0015808F300F5
:100ECE005708F2005608F1005508F0005408F700D4
:100EDE005308F6005208F5005108F4000A128A1160
:100EEE00D8250A128A11710883120313DA01DA0760
:100EFE007008D901D9075A08F101F1075908F00114
:100F0E00F0071930F2000030F3000A128A114D2555
:100F1E000A128A11700983120313C7007109C800DF
:100F2E00C70A0319C80A47085A3ECD0048080318D5
:100F3E00013E003ECE005A08F101F1075908F001BA
:100F4E00F0071930F2000030F3000A128A114D2515
:100F5E000A128A1170085A3E83120313CF007108C9
:100F6E000318013E003ED0005A08803AFF007F3041
:100F7E007F02031DC42FFF3059020318CA2F83129C
:100F8E000313DC01DC03831203135A08803AFF00BB
:100F9E0080307F02031DD52F02305902031CDB2F38
:100FAE0083120313DC01DC0A831203134E08F101D2
:100FBE00F1074D08F001F0075008F301F3074F0851
:100FCE00F201F2070A128A1197250A128A118B2E44
:100FDE0083132030840041300A128A1130250A1200
:100FEE008A110A128A112F25DC0083010A128A1136
:020FFE00672E5C
:02400E0071FF40
:00000001FF
