:060000000A128A11122809
:10000800FE00030E83120313A8000408A9000A08BF
:10001800AA007F08AB000A128A1120280A128A1146
:100028001528A001A101A201A301A401A501A6010F
:1000380083010A128A11B0280B1D48280813881357
:10004800A408031D38282608A70004300310A70DAC
:10005800FF3E031D2A2806080F3927048600881644
:100068008817A401A40A47282508A700043003100C
:10007800A70DFF3E031D3B2806080F3927048600FD
:1000880088120817A4010B110C1FA5281E08A1012E
:10009800A107831603131E0883120313A001A007E8
:1000A800FF30F6000330F7002108F101F1072008BE
:1000B800F001F0073230F2000030F3000A128A1122
:1000C80063210A128A117108F901F9077008F80109
:1000D800F8070A128A11F1200A128A117708831286
:1000E8000313A301A3077608A201A2070A30F600AA
:1000F8000030F7002308F901F9072208F801F8078A
:100108000A128A11F1200A128A117608831203133F
:10011800A7002708A6000A30F0000030F1002308E5
:10012800F301F3072208F201F2070A128A112F21BC
:100138000A128A11700883120313A7002708A50062
:100148000C132B08FF002A088A0029088400280EAF
:100158008300FE0E7E0E09000F3083120313AC00DD
:100168002C088316031386050F3083120313AC0083
:100178002C0886051F30AC002C088316031388054D
:10018800831203138812081388138030831603130D
:100198009F000130831203139F000430831603135A
:1001A80081008B160B110C17831203130C130B17FA
:1001B8008B17F930AC000000AC0BDF28E3280000F7
:1001C800831203131F158230AD00DD30AC00AC0B79
:1001D800EB28AD0BEB28F028E428FB01FC0177089D
:1001E800760403192829FD01FD0AF71B07290130A8
:1001F8000310F60DF70DFF3E031DFC280130FA0031
:100208007A08FD07F92801300310FB0DFC0DFF3EAD
:10021800031D082977087902031D14297608780236
:10022800031C1D297608F8027708031CF903F90254
:100238007B1401300310F70CF60CFF3E031D1E293A
:100248000130FD02031D07297C08F701F7077B0829
:10025800F601F60708007108700403195C29F50116
:10026800F50AF11B432901300310F00DF10DFF3E93
:10027800031D38290130F4007408F5073529710881
:100288007302031D492970087202031C5129700862
:10029800F2027108031CF303F30201300310F10C9E
:1002A800F00CFF3E031D52290130F502031D4329BE
:1002B8007308F101F1077208F001F0070800F40172
:1002C800F501701C6D297208F4070318F50A730804
:1002D800F50701300310F20DF30DFF3E031D6E29E3
:1002E80001300310F10CF00CFF3E031D7529710855
:1002F8007004031D65297508F101F1077408F00100
:04030800F0070800F2
:02400E0071FF40
:00000001FF
