:060000000A128A11122809
:10000800FE00030EFA000408FB000A08FC00831235
:1000180003137F08FD000A128A11032A0A128A11A3
:100028001528D001D10183010A128A11DF28831211
:100038000313BB002F30B1003108B5000130AE0703
:10004800FF302E0784000A128A1191210A128A11A0
:10005800B1003108BC00BC080319DA283C08253A6D
:10006800031942283C08B1003B0884003108831377
:1000780080000130B1003108BB072228B4014928AB
:10008800C030B1003108B4045B280130AE07FF303E
:100098002E0784000A128A1191210A128A11BC00C3
:1000A800003A0319DA28753A031944282228350832
:1000B800840083130008B600840A0008B7000230E1
:1000C800B1003108B507BC01BC0A3C08053A031960
:1000D8008E283C08B1003107013E84000A128A11BB
:1000E80091210A128A11B2000A128A1191210A1268
:1000F8008A11B30033083702031D842832083602F8
:10010800031C8E280130B1003108BC073C08053AB1
:10011800031D6D283C08B1003108BA00FF30B1005A
:100128003108BA073A08FF3A031922280A30A8000A
:100138000030A9003A08B1003107013E84000A12D4
:100148008A1191210A128A11A0000A128A1191219A
:100158000A128A11A1003708A301A3073608A201D1
:10016800A2070A128A1147210A128A11831203135D
:100178002108AB01AB072008AA01AA070A128A11B5
:100188003F220A128A11831203132808303EB20054
:100198003208BC003C08B1003B08840031088313D6
:1001A80080000130B1003108BB0792283B08840069
:1001B8008313800108000630831603139F0086010D
:1001C8008501043087003030831203139000053016
:1001D8009700831603130C15831203130C110B17C6
:1001E8008B1710140A128A1175220A128A1180308C
:1001F8000A128A1125230A128A1120308312031346
:10020800A7008030A8000A128A11D1220A128A1186
:10021800C0300A128A1125230A128A110B30831260
:100228000313A7008030A8000A128A11D1220A12EB
:100238008A11C0300A128A1125230A128A118312E0
:1002480003135108BE01BE075008BD01BD070A12BD
:100258008A11F6220A128A11283083120313A70082
:100268008030A8000A128A11D1220A128A11143089
:1002780083120313A0000030A1000A128A11A822D9
:100288000A128A110C2983120313A501A601210859
:10029800200403198029A701A70AA11B5F2901309F
:1002A8000310A00DA10DFF3E031D54290130A40029
:1002B8002408A707512901300310A50DA60DFF3EFC
:1002C800031D602921082302031D6C29200822022E
:1002D800031C75292008A2022108031CA303A302FA
:1002E800251401300310A10CA00CFF3E031D762934
:1002F8000130A702031D5F292608A101A1072508CF
:10030800A001A0070800FF1B912983137F188317FA
:100318000008840A0319FF0A080001308A0004084B
:10032800840A82070034013400340A340034643407
:100338000034E83403341034273420342034203493
:100348002034203420342034203420342034203405
:1003580020342034203420342034203420342034F5
:100368002034003450346534723469346F34643462
:100378003A34003420346D34733400342534753401
:100388000034F501F601710870040319FC29F7011E
:10039800F70AF11BDB2901300310F00DF10DFF3EC8
:1003A800031DD0290130F4007408F707CD29013066
:1003B8000310F50DF60DFF3E031DDC2971087302CD
:1003C800031DE82970087202031CF1297008F20263
:1003D8007108031CF303F302751401300310F10CC8
:1003E800F00CFF3E031DF2290130F702031DDB2943
:1003F8007608F101F1077508F001F00708008B1382
:100408000C1D332A0C118E018F0101308506160848
:10041800F9001508F8000310F80DF90D0310F80D90
:10042800F90D0310F80DF90D7808D0007908D100FE
:10043800E830F0000330F1001608F301F30715085F
:10044800F201F2070A128A11C5210A128A117108EB
:1004580083120313D101D1077008D001D0078B177D
:100468007D08FF007C088A007B0884007A0E8300E0
:10047800FE0E7E0E090083120313290828040319AF
:100488006E2AAD01AD0AA91B552A01300310A80D2B
:10049800A90DFF3E031D4A2A0130AC002C08AD0708
:1004A800472A29082B02031D5B2A28082A02031C55
:1004B800632A2808AA022908031CAB03AB020130EF
:1004C8000310A90CA80CFF3E031D642A0130AD02DD
:1004D800031D552A2B08A901A9072A08A801A8075E
:1004E80008000F3083120313A0000030A1000A1285
:1004F8008A11A8220A128A1138300A128A11252371
:100508000A128A1108300A128A1125230A128A113E
:1005180001300A128A1125230A128A110230831225
:100528000313A0000030A1000A128A11A8220A129F
:100538008A1106300A128A1125230A128A110C30F0
:100548000A128A112523080083120313A201A301AA
:1005580021082302031DB22A2008220203180800DA
:10056800A401A50103302502E83003192402031869
:10057800CA2A0130A4070318A50A0030A5070330CA
:100588002502E83003192402031CBD2A0130A20702
:100598000318A30A0030A307AC2A83120313280800
:1005A800FF00270884000A128A1187210A128A117B
:1005B800003803190800831203132808FF002708CE
:1005C80084000A128A1187210A128A110A128A11D2
:1005D80012230A128A11013083120313A707031882
:1005E800A80AD12A2C3083120313BF003F08AE009B
:1005F8003E08B001B0073D08AF01AF0740300A120E
:100608008A111B200A128A11403083120313A70093
:100618000030A8000A128A11D1220800831203139D
:10062800A600260886008716871307170130A00042
:100638000030A1000A128A11A8228312031307139B
:10064800080083120313A600260886008712871362
:1006580007170130A0000030A1000A128A11A82251
:080668008312031307130800BD
:02400E0071FF40
:00000001FF
