:060000000A128A11122809
:10000800FE00030EFA000408FB000A08FC00831235
:1000180003137F08FD000A128A1177290A128A1130
:100028001528B401B50183010A128A1191280530F7
:1000380083120313B2000030B300FF30B207031875
:10004800B30AFF30B30732082C3E840083138001C3
:100058002A082904031D77283030AB00FF30B20787
:100068000318B30AFF30B30732082C3E84002B086C
:10007800800086280A3083120313A0000030A100F4
:100088002A08A301A3072908A201A2070A128A11B4
:10009800B3210A128A11831203132008303EAB00E1
:1000A800FF30B2070318B30AFF30B30732082C3EFB
:1000B80084002B08831380000A30A0000030A100C0
:1000C8002A08A301A3072908A201A2070A128A1174
:1000D800F9200A128A11831203132108AA01AA0718
:1000E8002008A901A9072A08290403198628330822
:1000F800803AFF0080307F02031D842801303202DD
:1001080003183E288312031332082C3EA700003040
:10011800A8000A128A1176220800063083160313F3
:100128009F00860185010430870030308312031355
:10013800900005309700831603130C1583120313E0
:100148000C110B178B1710140A128A11E9210A12C5
:100158008A1180300A128A11AE220A128A111630C8
:1001680083120313A7008030A8000A128A1176228E
:100178000A128A11C0300A128A11AE220A128A1192
:10018800013083120313A7008030A8000A128A11D5
:1001980076220A128A11C0300A128A11AE220A1275
:1001A8008A11831203133508AA01AA073408A90182
:1001B800A9070A128A111B200A128A111E308312FB
:1001C8000313A7008030A8000A128A1176220A12A7
:1001D8008A11143083120313A0000030A1000A1200
:1001E8008A114D220A128A11BE2883120313A5010F
:1001F800A6012108200403193229A701A70AA11B77
:10020800112901300310A00DA10DFF3E031D062981
:100218000130A4002408A707032901300310A50D05
:10022800A60DFF3E031D122921082302031D1E29C6
:1002380020082202031C27292008A2022108031CE7
:10024800A303A302251401300310A10CA00CFF3E48
:10025800031D28290130A702031D11292608A10121
:10026800A1072508A001A0070800F501F6017108FB
:10027800700403197029F701F70AF11B4F2901309F
:100288000310F00DF10DFF3E031D44290130F40069
:100298007408F707412901300310F50DF60DFF3EEC
:1002A800031D502971087302031D5C29700872022E
:1002B800031C65297008F2027108031CF303F3029A
:1002C800751401300310F10CF00CFF3E031D662974
:1002D8000130F702031D4F297608F101F10775086F
:1002E800F001F00708008B130C1DA7290C118E01D3
:1002F8008F01013085061608F9001508F80003106B
:10030800F80DF90D0310F80DF90D0310F80DF90D9E
:100318007808B4007908B500E830F0000330F1003F
:100328003508F301F3073408F201F2070A128A11BB
:1003380039210A128A11710883120313B501B5070E
:100348007008B401B4078B177D08FF007C088A0089
:100358007B0884007A0E8300FE0E7E0E090083124D
:100368000313210820040319E229A501A50AA11BEA
:10037800C92901300310A00DA10DFF3E031DBE29A0
:100388000130A4002408A507BB2921082302031D66
:10039800CF2920082202031CD7292008A2022108FD
:1003A800031CA303A30201300310A10CA00CFF3E01
:1003B800031DD8290130A502031DC9292308A1015D
:1003C800A1072208A001A00708000F308312031319
:1003D800A0000030A1000A128A114D220A128A11C7
:1003E80038300A128A11AE220A128A1108300A120B
:1003F8008A11AE220A128A1101300A128A11AE221B
:100408000A128A11023083120313A0000030A100DF
:100418000A128A114D220A128A1106300A128A110A
:10042800AE220A128A110C300A128A11AE22080072
:10043800FF1B262A83137F1883170008840A0319D1
:10044800FF0A080002308A000408840A8207003480
:1004580020342034203420342034203420342034F4
:1004680020342034203420342034203420342034E4
:10047800203420342034203400345034653472342D
:1004880069346F3464343A34003420346D3473344E
:10049800003483120313A201A30121082302031DC0
:1004A800572A2008220203180800A401A5010330D6
:1004B8002502E8300319240203186F2A0130A40723
:1004C8000318A50A0030A50703302502E8300319F0
:1004D8002402031C622A0130A2070318A30A003071
:1004E800A307512A831203132808FF002708840052
:1004F8000A128A111C220A128A11003803190800EC
:10050800831203132808FF00270884000A128A119F
:100518001C220A128A110A128A119B220A128A11B3
:10052800013083120313A7070318A80A762A831237
:100538000313A600260886008716871307170130BD
:10054800A0000030A1000A128A114D228312031361
:100558000713080083120313A600260886008712D3
:10056800871307170130A0000030A1000A128A1172
:0A0578004D2283120313071308003D
:02400E0071FF40
:00000001FF
