:060000000A128A11122809
:10000800FE00030EF0000408F1000A08F200831253
:1000180003137F08F3000A128A119A290A128A1117
:100028001528F901A40183010A128A111B280F302F
:100038008316031386008701FF308800C4308100CF
:100048008B100B168312031381018B168B170A1260
:100058008A115D210A128A118312031308080F39C5
:10006800F7007708F800081A37280230F400003043
:10007800F5000A128A1134210A128A11C7300A12AD
:100088008A11AF210A128A1154300A128A11C22128
:100098000A128A1149300A128A11C2210A128A11D7
:1000A8004D300A128A11C2210A128A1145300A12E9
:1000B8008A11C2210A128A1152300A128A11C221E7
:1000C8000A128A119D300A128A11AF210A128A1166
:1000D80083120313A408031D73283030BA2883122F
:1000E80003132408013A031D7B283130BA288312F0
:1000F80003132408023A031D83283230BA288312D6
:1001080003132408033A031D8B283330BA288312BB
:1001180003132408043A031D93283430BA288312A1
:1001280003132408053A031D9B283530BA28831287
:1001380003132408063A031DA3283630BA2883126D
:1001480003132408073A031DAB283730BA28831253
:1001580003132408083A031DB3283830BA28831239
:1001680003132408093A031DC12839300A128A11D9
:10017800C2210A128A112030062983120313240887
:100188000A3A031DCF2831300A128A11C2210A12F5
:100198008A11303006298312031324080B3A031DF1
:1001A800DD2831300A128A11C2210A128A1131302F
:1001B80006298312031324080C3A031DEB28313057
:1001C8000A128A11C2210A128A11323006298312B0
:1001D800031324080D3A031DF92831300A128A1135
:1001E800C2210A128A113330062983120313240804
:1001F8000E3A031D0B2931300A128A11C2210A1244
:100208008A1134300A128A11C2210A128A11791C01
:1002180030280130F700770883120313A4070F3042
:1002280024020318A4013D30F4000030F5000A123E
:100238008A1134210A128A1183120313081A2029F9
:100248007808013E84000A128A1183210A128A1151
:10025800303A031D30280230F7007708A407302809
:1002680083120313A001A10175082102031D3E2971
:100278007408200203180800A201A3010330230216
:10028800E83003192202031856290130A20703187F
:10029800A30A0030A30703302302E830031922021F
:1002A800031C49290130A0070318A10A0030A1073F
:1002B80038290130F4000030F5000A128A1134217F
:1002C8000A128A1138300A128A11AF210A128A11C9
:1002D80008300A128A11AF210A128A1101300A1253
:1002E8008A11AF210A128A1106300A128A11AF2127
:1002F8000A128A110C300A128A11AF210800013043
:100308008A000408840A82070034313432343334D2
:1003180020343434353436342034373438343934AE
:1003280020342A3430342334203400348B138B1C8B
:100338009F298B1079140B1DA3290B11F9148B1706
:100348007308FF0072088A0071088400700E830029
:10035800FE0E7E0E0900F60076088312031387004E
:100368008612061386170130F4000030F5000A12D1
:100378008A1134218312031386130800F6007608C5
:100388008312031387008616061386170130F400BC
:100398000030F5000A128A113421831203138613E0
:0203A80008004B
:02400E0071FF40
:00000001FF
