:060000000A128A11122809
:10000800FE00030EF0000408F1000A08F200831253
:1000180003137F08F3000A128A11042A0A128A11AC
:100028001528B601B70183010A128A111B2832303C
:1000380083120313A8002808AE00AF01B001AA017B
:10004800AB01AC01AD010030B5000030B4000030A8
:10005800B3000030B200B1018030831603139F0053
:1000680001308500FF308600880183120313860162
:1000780088011930831603139900243098008030C2
:1000880083120313980041309F000C138316031347
:100098000C170B178B176430F4000030F5000A12A8
:1000A8008A11EE210A128A11831203131F15061CE6
:1000B8005B28B601B7011E08B001B0078316031309
:1000C8001E0883120313AF01AF07FF30A0000330EF
:1000D800A1003008F501F5072F08F401F4073230C4
:1000E800F6000030F7000A128A11CB210A128A1191
:1000F800750883120313A301A3077408A201A207BA
:100108000A128A118B210A128A11831203132008FA
:10011800B2002108B300B401B5010030A3000030DB
:10012800A2000030A1000A30A0003508A70034085A
:10013800A6003308A5003208A4000A128A11DD209F
:100148000A128A11831203132008A800A90128089B
:10015800AA002908AB000030A3000030A20000303C
:10016800A1000A30A0003508A7003408A60033080B
:10017800A5003208A4000A128A113D210A128A1128
:10018800831203132008A800A9012808AC00290835
:10019800AD003208A8002808B10083160313981C84
:1001A800D1288312031331089900F430F400013088
:1001B80052280030F8000030F7000030F600003018
:1001C800F5008312031323082204210420040319D1
:1001D8003429F901F90AA31BFF280130F4000310A0
:1001E800A00DA10DA20DA30DF40BF3280130F4000E
:1001F8007408F907EF280130F4000310F50DF60D27
:10020800F70DF80DF40B012923082702031D162901
:1002180022082602031D162921082502031D162976
:1002280020082402031C27292008A4022108031CF3
:10023800210FA5022208031C220FA6022308031C73
:10024800230FA702751401300310A30CA20CA10CF4
:10025800A00CFF3E031D28290130F902031DFF28C9
:100268007808A3007708A2007608A1007508A00006
:10027800080083120313230822042104200403190D
:100288008229F501F50AA31B57290130F400031050
:10029800A00DA10DA20DA30DF40B4B290130F40004
:1002A8007408F507472923082702031D6529220832
:1002B8002602031D652921082502031D652920083A
:1002C8002402031C75292008A4022108031C210FFD
:1002D800A5022208031C220FA6022308031C230FD1
:1002E800A70201300310A30CA20CA10CA00CFF3E26
:1002F800031D76290130F502031D57292708A3009D
:100308002608A2002508A1002408A00008008312DE
:100318000313A501A601210820040319C429A70174
:10032800A70AA11BA32901300310A00DA10DFF3EB0
:10033800031D98290130A4002408A7079529013036
:100348000310A50DA60DFF3E031DA42921082302B5
:10035800031DB02920082202031CB9292008A20283
:100368002108031CA303A302251401300310A10CC8
:10037800A00CFF3E031DBA290130A702031DA329C3
:100388002608A101A1072508A001A0070800F80177
:10039800F901741CD5297608F8070318F90A7708B3
:1003A800F90701300310F60DF70DFF3E031DD6299E
:1003B80001300310F50CF40CFF3E031DDD29750810
:1003C8007404031DCD297908F501F5077808F401AF
:1003D800F40708000130F4020030031CF503F502AD
:1003E800FF307506031DFA29FF307406031908004B
:1003F800F930F6000000F60BFE29022A0000EE296B
:100408008B130C1F0C2A0C130130B6000030B700F8
:100418008B177308FF0072088A0071088400700E39
:080428008300FE0E7E0E0900A8
:02400E0071FF40
:00000001FF
